S01E0000506C616E744875742D4E616E6F2D4669726D776172652E73726563B3
S11300000C94E2040C94F4040C94F4040C94F4049E
S11300100C94F4040C94F4040C94F4040C94F4047C
S11300200C94F4040C94F4040C94F4040C94F4046C
S11300300C94F4040C94F4040C94F4040C94F4045C
S11300400C94F4040C94F4040C94F4040C94F4044C
S11300500C94F4040C94F4040C94F4040C94F4043C
S11300600C94F4040C94F40400407A10F35A00A0A5
S1130070724E18090010A5D4E80000E8764817006D
S113008000E40B54020000CA9A3B000000E1F505AD
S1130090000080969800000040420F000000A086F7
S11300A001000000102700000000E8030000000029
S11300B06400000000000A000000000001000000CD
S11300C000002C76D888DC674F0823DFC1DFAE59E7
S11300D0E1B1B796E5E3E453C63AE651997696E87A
S11300E0E6C28426EB898C9B62ED407C6FFCEFBCFE
S11300F09C9F40F2BAA56FA5F490055A2AF75C9329
S11301006B6CF9676DC11BFCE0E40D47FEF520E65E
S1130110B500D0ED902E0300943577050080841E41
S1130120080000204E0A000000C80C333333330F9C
S1130130986E12831141EF8D2114893BE65516CF39
S1130140FEE6DB18D1844B381BF77C1D901DA4BB45
S1130150E424203284725E228100C9F124ECA1E5FA
S11301603D27AEE32000B0C8001040A4A1A681FF43
S1130170A83FD300D5F0D922DA12DB208D14AF00CA
S1130180000000000000007E8195B1B195817E7E63
S1130190FFEBCFCFEBFF7E0E1F3F7E3F1F0E00080D
S11301A01C3E7F3E1C0800383A9FFF9F3A380010DF
S11301B038BCFFBC38100000000000000000000044
S11301C0000000000000000000000000000000002B
S11301D00000000000000070F88888FD7F070F0011
S11301E04E5FF1F15F4E000000000000000000C00F
S11301F0FF7F0505657F3F995A3CE7E73C5A997FA5
S11302003E3E1C1C08080008081C1C3E3E7F0000E3
S11302102466FFFF662400005F5F00005F5F000646
S11302200F097F7F017F7FDABFA5A5FD5903020077
S1130230707070707070008094B6FFFFB694800088
S113024004067F7F0604000010307F7F3010000812
S113025008082A3E1C0800081C3E2A080808003C1E
S11302603C202020202000081C3E08083E1C0830AA
S1130270383C3E3E3C3830060E1E3E3E1E0E060006
S11302800000000000000000065F5F0600000000A0
S113029007070007070000147F7F147F7F140024E2
S11302A02E6B6B3A120000466630180C6662003002
S11302B07A4F5D377A48000407030000000000000D
S11302C01C3E63410000000041633E1C0000000826
S11302D02A3E1C1C3E2A0808083E3E08080000006E
S11302E0A0E06000000000080808080808000000FA
S11302F0006060000000006030180C060301003E3E
S11303007F594D7F3E000042427F7F4040000062A3
S11303107359496F660000226349497F360000180B
S11303201C16137F7F1000276745457D3900003C6C
S11303307E4B4979300000036371190F07000036C2
S11303407F49497F360000064F49693F1E0000007F
S1130350006C6C0000000000A0EC6C0000000008C1
S11303601C3663410000001414141414140000001B
S11303704163361C080000020351590F0600003E79
S11303807F415D5D1F1E007C7E13137E7C00004157
S11303907F7F49497F36001C3E634141632200410F
S11303A07F7F41637F1C00417F7F495D4163004142
S11303B07F7F491D0103001C3E6341517372007F1E
S11303C07F08087F7F000000417F7F4100000030EC
S11303D07040417F3F0100417F7F081C77630041EB
S11303E07F7F41406070007F7F060C067F7F007F27
S11303F07F060C187F7F001C3E6341633E1C004156
S11304007F7F49090F06001E3F21717F5E00004176
S11304107F7F19396F460026674D597B32000003F0
S1130420417F7F410300007F7F40407F7F00001FAA
S11304303F60603F1F00007F7F3018307F7F006384
S1130440771C081C776300074F78784F0700006714
S113045073594D47637100007F7F414100000001E3
S113046003060C183060000041417F7F0000000843
S11304700C0603060C080080808080808080800049
S113048000030704000000207454543C78400041E9
S11304903F7F44447C3800387C44446C280000305E
S11304A07848493F7F4000387C54545C1800004829
S11304B07E7F490302000098BCA4A4F87C04004198
S11304C07F7F08047C780000447D7D40000000406C
S11304D0C484FD7D000000417F7F10386C4400001F
S11304E0417F7F400000007C7C0C180C7C78007CF1
S11304F07C04047C780000387C44447C380000840C
S1130500FCF8A4243C1800183C24A4F8FC840044FF
S11305107C78441C180000485C5454742400000087
S1130520043E7F442400003C7C40403C7C40001C52
S11305303C60603C1C00003C7C6030607C3C0044BF
S11305406C3810386C44009CBCA0A0FC7C00004CAF
S113055064745C4C64000008083E7741410000006C
S1130560000077770000004141773E080800000250
S113057003010302030100787C4643467C78001E95
S1130580BFE161331200003A7A40407A7A40003881
S11305907C56575D18000002237555557D7B42211A
S11305A07554547D794000207557567C784000007E
S11305B0227755557F7A401CBEE262361400000251
S11305C03B7D55555D1B02397D54545D190000383F
S11305D07D57565C18000001457C7C4101000002F7
S11305E003457D7D43020000457F7E400000007985
S11305F07D26267D790000707A2D2D7A70000044C6
S11306007C7E5755440000207454547C7C54547CA4
S11306107E0B097F7F4900327B49497B32000032DF
S11306207A48487A32000030794B4A783000003AF0
S11306307B41417B7A40003879434278784000BA64
S1130640BAA0A0FA7A0000397D4444447D39003DC3
S11306507D40407D3D0000387C64544C7C3800680B
S11306607E7F49436620005C3E7349673E1D00441B
S11306706C38386C44000040C888FE7F090B0220A7
S11306807456577D78400000447E7F41000000305E
S113069078484A7B310000387840427B7940007AC0
S11306A07B090B7A7301007A7B19337A7B01000092
S11306B0262F292F2F280000262F29292F26003006
S11306C0784D45602000001C227D4B5B65221C0890
S11306D008080838380000613F1FCCEEABB99061C0
S11306E03F1F4C6673D9F8000060FAFA60000008F6
S11306F01C3622081C362222361C0822361C08AA64
S1130700005500AA005500AA55AA55AA55AA555540
S1130710FFAAFF55FFAAFF000000FFFF0000001022
S11307201010FFFF00000070782C2E7B7100007207
S1130730792D2D79720000717B2E2C787000001CAD
S1130740225D555541221C1414F7F700FFFF0000E9
S113075000FFFF00FFFF001414F4F404FCFC001479
S1130760141717101F1F00183C24E7E72424002B3C
S11307702FFCFC2F2B0000101010F0F000000000E4
S113078000001F1F1010101010101F1F1010101049
S11307901010F0F0101010000000FFFF10101010E7
S11307A010101010101010101010FFFF1010102255
S11307B07755577E7B4100727B2D2F7A73010000A1
S11307C0001F1F101717140000FCFC04F4F4141489
S11307D0141717101717141414F4F404F4F4140071
S11307E000FFFF00F7F71414141414141414141451
S11307F014F7F700F7F714663C3C243C3C6600050C
S11308002772577D380000497F7F49637F1C00466B
S11308107D7D5555460000457D7C5455450000447A
S11308207D7F56544400000A0E08000000000000BA
S1130830447E7F4500000002457D7D4502000001A5
S1130840457C7C450100001010101F1F00000000B3
S11308500000F0F0101010FFFFFFFFFFFFFFFFF09C
S1130860F0F0F0F0F0F0F000000077770000000006
S1130870457F7E440000000F0F0F0F0F0F0F0F383E
S11308807C4647457C3800FCFE2A2A3E1400003A88
S11308907D4545457D3A00387C4547467C380032E5
S11308A07B494B7A3301003A7F4547467F390080C4
S11308B0FE7E20203E1E00427E7E541C0800004125
S11308C07F7F55141C08003C7C42437D3C00003A69
S11308D0794141793A00003C7D43427C3C0000B8B8
S11308E0B8A2A3F97800000C5C72735D0C000002DE
S11308F002020202020000000002030100000010D4
S11309001010101010000044445F5F44440000289D
S11309102828282828000071351F4C6673D9F8064A
S11309200F097F7F017F7FDABFA5A5FD5903020868
S1130930086B6B080800000080C040000000000045
S1130940060F090F06000002020000020200000068
S1130950000010100000000012131F1F10100000F0
S11309601115151F1F0A0000191D1517120000008C
S1130970003C3C3C3C00000000000000000000453E
S113098072726F72004572726F72004800257300B4
S1130990483A20004300257300543A2000430025C0
S11309A0730054323A2000430025730054313A2036
S11309B000506C616E74487574205625692E256943
S11309C02E25690011241FBECFEFD8E0DEBFCDBFB6
S11309D021E0A0E0B1E001C01D92AB30B207E1F725
S11309E00E9420090C947B0E0C94000088B1806353
S11309F088B91092BC001092B90089EF8093B800B6
S1130A0083ED90E30197F1F700C00000089584EAB4
S1130A108093BC0080E005C091E0980F8536C0F457
S1130A20892F9091BC009923BCF788E78093BB0081
S1130A3084E88093BC0080E005C091E0980F85367F
S1130A4048F4892F9091BC009923BCF780E0089565
S1130A5081E0089581E008958093BB0084E8809349
S1130A60BC0080E005C091E0980F853638F4892FEA
S1130A709091BC009923BCF780E0089581E008952B
S1130A80ECEBF0E084E9808310820895CF93DF9348
S1130A90C82FD62F80930201609301010E9407059D
S1130AA080E00E942C058D2F806B0E942C0581E232
S1130AB00E942C058C2F880F880F880F0E942C050C
S1130AC08FE70E942C050E944005DF91CF91089585
S1130AD0CF93DF9360E080E00E9446050E94070503
S1130AE080E40E942C05C0E0D0E004C080E00E94B5
S1130AF02C052196C11588E0D807C0F30E94400553
S1130B0060E080E00E944605DF91CF910895CF9385
S1130B100E94070580E00E942C05C0E008C0EC2F6D
S1130B20F0E0EE59FE4F84910E942C05CF5FCD3149
S1130B30B0F30E9440050E946805CF910895809308
S1130B4000010895DF92EF92FF920F931F93CF93CA
S1130B50DF93082F80910001882309F49BC06091E2
S1130B600101809102010E9446050E94070580E46C
S1130B700E942C0510E035C0E02FF0E0EE0FFF1FBF
S1130B80EE0FFF1FEE0FFF1FE10FF11DE158FE4FA7
S1130B90849180FBEE24E0F8F12CE82FE270F0E081
S1130BA0EE0FFF1FEE0DFF1D282F247030E0220FE3
S1130BB0331F220F331FE20FF31F887090E0880F5A
S1130BC0991F880F991F880F991FE80FF91FDE2EB0
S1130BD0DD0CDE0E8D2D0E942C058D2D0E942C0522
S1130BE01F5F183048F20E944005609101016F5F59
S1130BF0809102010E9446050E94070580E40E943C
S1130C002C0510E038C0E02FF0E0EE0FFF1FEE0FD0
S1130C10FF1FEE0FFF1FE10FF11DE158FE4F24915E
S1130C2022952F70822F8170C82F80E0D82F822FB9
S1130C30827090E0880F991F8C0F9D1F422F447083
S1130C4050E0440F551F440F551F840F951F287003
S1130C5030E0220F331F220F331F220F331F820F66
S1130C60931FF82EFF0CF80E8F2D0E942C058F2D4C
S1130C700E942C051F5F183030F20E9440058091BD
S1130C8002018E5F80930201809101018150809363
S1130C90010126C060910101809102010E94460574
S1130CA00E94070580E40E942C05C0E010C0E02FDC
S1130CB0F0E0EE0FFF1FEE0FFF1FEE0FFF1FEC0F14
S1130CC0F11DE158FE4F84910E942C05CF5FC8307E
S1130CD070F30E944005809102018F5F80930201AE
S1130CE0DF91CF911F910F91FF90EF90DF900895C6
S1130CF0CF93DF93EC0103C021960E94A205888163
S1130D008111FACFDF91CF9108958F929F92AF9284
S1130D10BF92DF92EF92FF920F931F93CF93DF93D3
S1130D20CDB7DEB764970FB6F894DEBF0FBECDBF64
S1130D30FE01B296019111915F01D12C78018FEFE0
S1130D40E81AF80AF8018491882309F4A5C08532C9
S1130D5009F09EC04801F2E08F0E911CF7018491C6
S1130D60282F30E0205331092A30310560F48B8775
S1130D701C86CE010B960E949A0BD82E0D5F1F4F36
S1130D80F401849101C08401893681F128F482360A
S1130D9051F08336E9F0D2CF833739F0883721F127
S1130DA08F3661F61FC042E022C04501F2E08F0E8B
S1130DB0911CF501E080F18005C0FFEFEF1AFF0AF6
S1130DC00E94A205F70180818111F7CF5401B6CFAB
S1130DD07501F2E0EF0EF11CF50180810E94A2057D
S1130DE05701ACCF48E003C040E101C04AE050E005
S1130DF07501F2E0EF0EF11CBE016F5F7F4FF5014C
S1130E00808191810E94CA0B80E090E001C0CA01F8
S1130E10AC014F5F5F4FE1E0F0E0EC0FFD1FE80F26
S1130E20F91F20812111F3CF2D2D30E08217930774
S1130E3044F5D81A20E030E00AC0EBE0F0E0EC0F13
S1130E40FD1FE20FF31F80E380832F5F3F4F8D2D43
S1130E5090E0281739078CF3EBE0F0E0EC0FFD1F6E
S1130E60E20FF31F1082BE016F5F7F4FCE010B961E
S1130E700E94B80BBE01655F7F4FCE0101960E94B0
S1130E80C30BCE0101960E9478065701D12C56CF90
S1130E900E94A205870152CF64960FB6F894DEBF74
S1130EA00FBECDBFDF91CF911F910F91FF90EF90B7
S1130EB0DF90BF90AF909F908F900895CF92DF9274
S1130EC0EF92FF920F931F93CF93DF9300D000D044
S1130ED01F92CDB7DEB7AC01FE01319685E0DF018C
S1130EE01D928A95E9F784B1816084B995B19160C6
S1130EF095B9E7EAF1E63197F1F700C0000095B142
S1130F009E7F95B9F6EAFA95F1F700C095B1916024
S1130F1095B994B19E7F94B92DE02A95F1F700001C
S1130F2018999CC08AE18A95F1F700C0189B98C073
S1130F309AE19A95F1F700C0A0E034C02F5F3F4FCB
S1130F40293C310518F08EC020E030E0189BF6CF24
S1130F50BAE0BA95F1F7189B0CC0E7E0F0E0E91BA2
S1130F60F10921E030E002C0220F331FEA95E2F7D5
S1130F70822B20E030E006C02F5F3F4F293C310533
S1130F8008F072C01899F8CF9F5F02C080E090E02B
S1130F909830D0F2E1E0F0E0EC0FFD1FEA0FF11D14
S1130FA08083AF5FA53090F384B1816084B985B14B
S1130FB0816085B9E7EAF1E63197F1F700C00000F6
S1130FC009813A818B812C81902F930F980F920F76
S1130FD0ED819E134BC07B016A0110E0102F0027A6
S1130FE0032B682F70E0762F6627622B7723A4F4F7
S1130FF07F7780E090E00E947F0A20E030E040E2CA
S113100051E40E940D0ADC01CB01B058F601808343
S11310109183A283B38310C080E090E00E947F0A92
S113102020E030E040E251E40E940D0AD6016D93C5
S11310307D938D939C931397B80180E090E00E9478
S11310407F0A20E030E040E251E40E940D0AF701FB
S1131050608371838283938380E009C08FEF07C02C
S11310608FEF05C08FEF03C08FEF01C08FEF0F909C
S11310700F900F900F900F90DF91CF911F910F91D0
S1131080FF90EF90DF90CF9008950E945E0708953F
S11310904BB121E030E0B90102C0660F771F8A9599
S11310A0E2F7CB01962F909549234BB92AB1282B0F
S11310B02AB970EA7A95F1F72AB192239AB924E110
S11310C02A95F1F799B189236CE86A95F1F70895A7
S11310D04BB121E030E002C0220F331F6A95E2F7E2
S11310E0922F9095342F39233BB93AB1232B2AB947
S11310F00000882319F08AB189238AB984E18A958A
S1131100F1F78AB198239AB908954BB121E030E000
S1131110082E02C0220F331F0A94E2F7922F9095F3
S1131120342F39233BB93AB1232B2AB900002AB111
S113113092239AB944E04A95F1F700C029B130E00E
S1131140A90102C0559547958A95E2F740FD02C072
S113115080E001C081E05FE05A95F1F708950F93B4
S11311601F93CF93DF93C82F8B0188E007C0B8018A
S11311708C2F81700E946808C6958D2FDFEFD80FE1
S11311808111F5CFDF91CF911F910F9108950F93A6
S11311901F93CF93DF938C0180E098E00BC0C82F9E
S11311A0C695C8010E94850820E8829FC0011124C9
S11311B08C2B9D2FDFEFD90F9111F1CFDF91CF91C0
S11311C01F910F9108951F93CF93DF93EC01F8942F
S11311D00E944808BE018CEC0E94AF08BE0184E462
S11311E00E94AF08CE010E9485088823D9F3CE015E
S11311F00E944808BE018CEC0E94AF08BE018EEB31
S11312000E94AF08CE010E94C708182FCE010E9489
S1131210C7087894682F70E0762F6627610F711DD8
S1131220072E000C880B990B0E94810A20E030E005
S113123040E85DE30E940D0BDF91CF911F9108956B
S1131240CF93DF93CDB7DEB7C456D1090FB6F89468
S1131250DEBF0FBECDBF0E94F6040E94870580E06A
S11312600E949F0567E080E00E9446051F9286E089
S11312708F931F9283E08F931F921F9281EB99E0CB
S11312809F938F930E94850687E090E00E94E30875
S11312909E012F5F3F4F7901890123E043E00E94C3
S11312A07A0B63E080E00E9446058CEA99E09F9304
S11312B08F930E948506FF92EF9289EA99E09F93AB
S11312C08F930E94850687EA99E09F938F930E94EB
S11312D0850686E090E00E94E30823E043E00E9454
S11312E07A0B64E080E00E94460582EA99E09F93CD
S11312F08F930E948506FF92EF928FE999E09F9366
S11313008F930E9485068DE999E09F938F930E94A5
S1131310850663E071E087E091E00E9445080FB61E
S1131320F894DEBF0FBECDBF8F3F09F451C080E0FB
S11313300E949F0560910701709108018091090145
S113134090910A0123E043E00E947A0B61E080E07F
S11313500E94460589E999E09F938F930E94850630
S1131360FF92EF9286E999E09F938F930E948506FE
S113137084E999E09F938F930E948506609103010D
S113138070910401809105019091060123E043E0EE
S11313900E947A0B62E080E00E94460580E999E0B1
S11313A09F938F930E948506FF92EF928DE899E0B8
S11313B09F938F930E9485068BE899E09F938F9368
S11313C00E9485060FB6F894DEBF0FBECDBF1BC0CA
S11313D080E00E949F0561E080E00E94460585E868
S11313E099E09F938F930E94850662E080E00E94BB
S11313F046058FE799E09F938F930E9485060F908F
S11314000F900F900F909FED23E934E0915020400E
S11314103040E1F700C0000022CF0E94210A0C9462
S1131420D30A0E94CC0A58F00E94C50A40F029F45D
S11314305F3F29F00C94BC0A51110C94070B0C94D7
S1131440C20A0E94E40A68F39923B1F3552391F385
S1131450951B550BBB27AA2762177307840738F01F
S11314609F5F5F4F220F331F441FAA1FA9F335D07C
S11314700E2E3AF0E0E832D091505040E695001C30
S1131480CAF72BD0FE2F29D0660F771F881FBB1FEA
S1131490261737074807AB07B0E809F0BB0B802DC8
S11314A0BF01FF2793585F4F3AF09E3F510578F0F4
S11314B00C94BC0A0C94070B5F3FE4F3983ED4F3FE
S11314C0869577956795B795F7959F5FC9F7880FC8
S11314D0911D9695879597F90895E1E0660F771F1A
S11314E0881FBB1F621773078407BA0720F0621BAB
S11314F0730B840BBA0BEE1F88F7E0950895E894FC
S113150009C097FB3EF490958095709561957F4F47
S11315108F4F9F4F9923A9F0F92F96E9BB279395F5
S1131520F695879577956795B795F111F8CFFAF405
S1131530BB0F11F460FF1BC06F5F7F4F8F4F9F4F36
S113154016C0882311F096E911C0772321F09EE894
S1131550872F762F05C0662371F096E8862F70E0FA
S113156060E02AF09A95660F771F881FDAF7880FD4
S11315709695879597F9089597F99F6780E870E0A5
S113158060E008959FEF80EC089500240A941616F5
S1131590170618060906089500240A94121613065D
S11315A0140605060895092E0394000C11F48823EB
S11315B052F0BB0F40F4BF2B11F460FF04C06F5F07
S11315C07F4F8F4F9F4F089557FD9058440F551FDD
S11315D059F05F3F71F04795880F97FB991F61F0B1
S11315E09F3F79F087950895121613061406551F28
S11315F0F2CF4695F1DF08C0161617061806991F94
S1131600F1CF86957105610508940895E894BB2788
S113161066277727CB0197F908950E94200B0C9435
S1131620D30A0E94C50A38F00E94CC0A20F0952300
S113163011F00C94BC0A0C94C20A11240C94070BEC
S11316400E94E40A70F3959FC1F3950F50E0551F73
S1131650629FF001729FBB27F00DB11D639FAA2703
S1131660F00DB11DAA1F649F6627B00DA11D661F52
S1131670829F2227B00DA11D621F739FB00DA11D73
S1131680621F839FA00D611D221F749F3327A00D2D
S1131690611D231F849F600D211D822F762F6A2FC9
S11316A011249F5750409AF0F1F088234AF0EE0F2E
S11316B0FF1FBB1F661F771F881F91505040A9F75B
S11316C09E3F510580F00C94BC0A0C94070B5F3FBD
S11316D0E4F3983ED4F3869577956795B795F79597
S11316E0E7959F5FC1F7FE2B880F911D969587950F
S11316F097F90895EF920F931F93CF93DF93E80127
S113170047FD02C034E001C034E1042E000C550B47
S113171057FF03C0519541955109E32E022F242F01
S1131720AE010E94020CCE01DF91CF911F910F9167
S1131730EF900895FC0188279927E894219120329D
S1131740E9F3293010F02E30C8F32B3241F02D325A
S113175039F4689404C00E94E00B820F911D21911A
S113176020532A30C0F31EF4909581959F4F08951D
S1131770FB01DC010D900020E9F7119701900D9217
S11317800020E1F70895FB01DC0101900D92002097
S1131790E1F708954532510520F4423010F00C94DD
S11317A0D50BFB011082CB010895BB274A3031F4DD
S11317B0992322F4BDE2909581959F4F0C94E90BF7
S11317C07AE0979F902D879F802D910D1124089585
S11317D0BB27FB015527AA27880F991FAA1FA41707
S11317E010F0A41B83955051B9F7A05DAA3308F0FB
S11317F0A95DA193009779F7B111B1931192CB012F
S11318000C94340EA9E0B0E0E8E0FCE00C944A0E3D
S11318106A01122FB02E2BE3201720F0FF24F3943B
S1131820F00E02C02CE3F22E0F2D27E0AE014F5F25
S11318305F4F0E945C0DBC014981842F8970813007
S113184031F0E1FC06C0E0FE06C090E205C09DE276
S113185003C09BE201C090E05E2D507143FF3CC089
S1131860911102C083E001C084E0811718F4212F94
S1131870281B01C020E051110BC0F601822F30E279
S1131880882319F031938150FBCFC20ED11C20E084
S1131890992329F0D6019C93F60131966F01C60174
S11318A00396E2FE0AC03EE4D6013C9341E411965D
S11318B04C93119712963C9306C03EE6F601308392
S11318C041E641833283FC01322F40E2332309F4A1
S11318D042C041933150FACF42FF44C0911102C03B
S11318E083E001C084E0811718F4212F281B01C074
S11318F020E051110BC0F601822F30E2882319F049
S113190031938150FBCFC20ED11C20E0992329F0E2
S1131910D6019C93F60131966F01C6010396E2FE4F
S11319200BC039E4D6013C933EE411963C931197E5
S113193036E412963C9307C039E6F60130833EE65E
S1131940318336E63283FC01322F40E2332319F02F
S113195041933150FBCFFC01E20FF11D10828EEF59
S11319609FEFA6C021E030E0911102C020E030E0FA
S1131970161617061CF4FB01319602C0E1E0F0E0F4
S11319802E0F3F1FBB2021F0EB2DF0E0319602C05B
S1131990E0E0F0E02E0F3F1FE12FF0E02E173F07AD
S11319A01CF4121B212F01C020E08E2D887159F4E4
S11319B0F601822F30E2882319F031938150FBCF56
S11319C0C20ED11C20E0992329F0D6019C93F60184
S11319D031966F0151110BC0F601822F90E38823D9
S11319E019F091938150FBCFC20ED11C20E00F2D32
S11319F0060F9A81342F307144FF03C0913309F4E8
S1131A000150101624F4093018F008E001C001E078
S1131A10AB0177FF02C040E050E0FB01E41BF50B93
S1131A20A1E0B0E0AC0FBD1FEA0FFB1F8EE2A82EB1
S1131A304B01801A91080B2D10E0119501951109A5
S1131A404F3FBFEF5B0721F4D601AC9211966D01B5
S1131A50641775072CF08416950614F4818101C06F
S1131A6080E3415051093196D60111967D0140170A
S1131A70510724F0D6018C936701E2CF64177507F0
S1131A8039F4963320F4953319F4311101C081E30C
S1131A90F6018083F701822F90E2882319F0919355
S1131AA08150FBCFF701E20FF11D108280E090E03E
S1131AB02996ECE00C94660E283008F027E03327D2
S1131AC0DA01990F311D87FD91600096610571055A
S1131AD039F432602E5F3D9330E32A95E1F708959F
S1131AE09F3F30F080387105610509F03C5F3C5F31
S1131AF03D93913008F08068911DDF93CF931F933D
S1131B000F93FF92EF92192F987F9695E92F969550
S1131B109695E90FFF27EE53FF4F99273327EE24BD
S1131B20FF24A701E70105900894079428F4360FD1
S1131B30E71EF81E491F511D660F771F881F991F46
S1131B400694A1F70590079428F4E70EF81E491FA0
S1131B50561FC11D770F881F991F661F0694A1F792
S1131B600590079428F4F80E491F561FC71FD11D6E
S1131B70880F991F661F771F0694A1F70590079495
S1131B8020F4490F561FC71FD81F990F661F771FD0
S1131B90881F0694A9F784911095177041F0D69583
S1131BA0C79557954795F794E7941A95C1F7E8E6D2
S1131BB0F0E0689415901591359165919591059093
S1131BC07FE27395E118F10A430B560BC90BD00958
S1131BD0C0F7E10CF11E431F561FC91FD01D7EF430
S1131BE0703311F48A95E6CFE894015030F0080F71
S1131BF00AF40027021708F4202F2395022F7A33C2
S1131C0028F079E37D932A95E9F710C07D932A950E
S1131C1089F6069497956795379517951794E11863
S1131C20F10A430B560BC90BD00998F023957E910A
S1131C3073957A3308F070E37C932013B8F77E91A0
S1131C4070617D9330F0839571E37D9370E32A9501
S1131C50E1F71124EF90FF900F911F91CF91DF9145
S1131C60992787FD90950895DC01FC01672F7191F8
S1131C707723E1F7329704C07C916D93708362916E
S1131C80AE17BF07C8F308952F923F924F925F9209
S1131C906F927F928F929F92AF92BF92CF92DF9278
S1131CA0EF92FF920F931F93CF93DF93CDB7DEB7DD
S1131CB0CA1BDB0B0FB6F894DEBF0FBECDBF099471
S1131CC02A88398848885F846E847D848C849B84C8
S1131CD0AA84B984C884DF80EE80FD800C811B81D6
S1131CE0AA81B981CE0FD11D0FB6F894DEBF0FBE05
S10D1CF0CDBFED010895F894FFCF75
S9030000FC
